:100000000C9434000C943E000C943E000C943E0082
:100010000C943E000C943E000C943E000C943E0068
:100020000C943E000C943E000C943E000C943E0058
:100030000C943E000C943E000C943E000C943E0048
:100040000C943E000C943E000C943E000C943E0038
:100050000C943E000C943E000C943E000C943E0028
:100060000C943E000C943E0011241FBECFEFD8E04C
:10007000DEBFCDBF0E9440000C945A000C940000DB
:1000800080E48AB983E085B991E894BD85BD80E2BA
:1000900096E82FEF189902C0199987BD199902C0E7
:1000A000189997BD199904C0189902C027BDF2CFBD
:0800B00017BCF0CFF894FFCF5C
:00000001FF
